:03000000020FB933
:0C0FB900787FE4F6D8FD7581440210003A
:030023000213764F
:0D137600309904C299C20F309802C298321B
:10000E00759850E4F589758BCC758DFFD28E758EF3
:04001E0040C20F22AB
:08000300200FFDD20F8F99229E
:10032A00E4F51075110A12000EA2BCE43342B84378
:10033A00B710D2ACE4F5341213BC1213101211EE3A
:10034A001212D11213657F011212897F01121353FF
:10035A007F01120F271213B2D2AFE4FF121390904B
:10036A00E000E493F533D3E53394647480948040D9
:10037A0003E4F53330110CC2111511E511646470F0
:10038A0002F511E511700675110A12055FE53414BC
:10039A00700302045F1470030204912402600302D2
:1003AA000550200A03020550C20AE4F510E510C3FD
:1003BA0095334003020550E51075F010A42400FFA0
:1003CA00E5F034E48F82F5831202DD900241E0F811
:1003DA00A3E0F9A3E0FAA3E0FBC31202A67071E559
:1003EA001075F010A42400FFE5F034E4FAA9077BA5
:1003FA00FF78237C007D007E007F10120136E52EF7
:10040A00452D701CAF2AAE29AD28AC2790022812C0
:10041A0002ED900212E52BF0A3E52CF0E4FF802216
:10042A00E52E6401452D701DAF2AAE29AD28AC27F3
:10043A009002241202ED900210E52BF0A3E52CF0B5
:10044A007F011213C51210457F0412139002055042
:10045A0005100203B7200A03020550C20A7F0112DF
:10046A0013CE900241E0FCA3E0FDA3E0FEA3E0F579
:10047A00268E258D248C237F01120F277F021213CB
:10048A0090753402020550E53B7003020550E4FF03
:10049A001213CEE4FF120F27E53BFB7A00640170CA
:1004AA0026900228E0FCA3E0FDA3E0FEA3E0F52AE3
:1004BA008E298D288C27900212E0F52BA3E0F52CCB
:1004CA00E4F52DF52E802BEB64024A702590022468
:1004DA00E0FCA3E0FDA3E0FEA3E0F52A8E298D2827
:1004EA008C27900210E0F52BA3E0F52C752D0075F2
:1004FA002E01E53375F010A42400FFE5F03404FE64
:10050A007B007A0079237D107C00120ABFEF602EEF
:10051A000533E4FFFE120026AD33E4FFFE12133D5D
:10052A0090E000E4936533600EE4FFFE120026AD0E
:10053A0033E4FFFE12133D7F0312139080057F33CD
:10054A00120003E4F5341211951206C212081F12A2
:05055A00096F02037EA1
:0D138300E4F5C7F5C5F5C675C380F5C422B5
:1013270075C78175C5018FC48EC375C65A75C6A5A5
:0613370000AFC2021383A7
:10133D0075C78175C5028FC48EC38DC275C65A75AA
:06134D00C6A50002138397
:1000260075C78175C5038FC48EC375C65A75C6A5B7
:04003600000213832E
:0A0ABF008C128D138B148A15891612
:100AC900E4F517F518F519F51AF51BF51CF51DF5DB
:100AD9001ED3E5139400E512940240037F0022EE31
:100AE9005401F5198F1AE51A2513FDE5193512FC7C
:100AF900D3ED9400EC940240037F0022EE54FEF5FE
:100B09001B751C00F51D851C1EE4F517F518051E3F
:100B1900E51EAE1D7002051D14FF12132774002572
:100B290018F58274003517F583EFF00518E518708C
:100B3900020517C3E517940240D4E4F517F518C365
:100B4900E5189513E51795125030AB14AA15A91697
:100B590085188285178312015CFF051AE51AAC19FD
:100B690070020519142400F58274003CF583EFF036
:100B79000518E5187002051780C5AF1CAE1B1200D9
:100B890026851B1D851C1EE4F517F518E51E25187D
:100B9900FFE51D3517FE74002518F5827400351719
:100BA900F583E0FD12133DE51E2518FFE51D3517F8
:100BB900FE12132774002518F58274003517F58382
:100BC900E06F60061213837F00220518E518700292
:0E0BD9000517C3E517940240B31213837F0182
:010BE70022EB
:0913BC00E4F592F5917590FF2211
:1012F10030101B051FAF1F7E00EF64C87003C29042
:0F13010022EF64E84E70077590FFF51FC21022AF
:0D139000EF25E04401F590E4F51FD2102296
:0A13A800C0F9A4B0999282F8809871
:07139D00C10D42025C0000DB
:10131000E4F596F595F594F593D2A1D2A2FF1200CB
:071320003EE490025EF022A2
:10003E00EF75F00A84E5F09013A89390025CF0EF50
:10004E0075F06484E5F075F00A849013A89390021D
:03005E005DF02230
:0613CE0090025EEFF02228
:10112F000542E54270020541B4900CE541B4010758
:10113F00E4F541F542B20E300D26C2A1D2A29002C3
:10114F005EE030E108300E057580FF8010A20DE4DF
:10115F0033245CF582E43402F583E0F580C20D227E
:10116F00D2A1C2A290025EE030E008300E05758079
:10117F00FF8010A20DE433245CF582E43402F58382
:06118F00E0F580D20D2204
:0313A40001430002
:1011EE00E4FFF5B2F5B1EFC39404748094805041DE
:1011FE00EF25E02454F582E43402F583E054FEF04A
:10120E00EF25E02454F582E43402F583E054FDF03A
:10121E00EF25E02454F582E43402F583E054FBF02C
:10122E00EF25E02455F582E43402F583E4F00F80D7
:01123E00B5FA
:01123F00228C
:10055F0020B328900254E0FB30E217A3E004F0E050
:10056F00D39432748094804040900254E04402F05F
:10057F008037EB4404900254F0802E900254E0FF39
:10058F00C31354017012A3E0D3940A748094804073
:10059F0007EF4401900254F0900254E054FBF0E452
:1005AF00A3F0900254E054FDF020B428900256E0DE
:1005BF00FB30E217A3E004F0E0D394327480948010
:1005CF004040900256E04402F08037EB4404900222
:1005DF0056F0802E900256E0FFC31354017012A301
:1005EF00E0D3940A748094804007EF440190025640
:1005FF00F0900256E054FBF0E4A3F0900256E05462
:10060F00FDF020B528900258E0FB30E217A3E0047C
:10061F00F0E0D39432748094804040900258E044CC
:10062F0002F08037EB4404900258F0802E9002586D
:10063F00E0FFC31354017012A3E0D3940A748094A3
:10064F00804007EF4401900258F0900258E054FBAD
:10065F00F0E4A3F0900258E054FDF020B62690028B
:10066F005AE0FB30E216A3E004F0E0D3943274803A
:10067F009480403E90025AE04402F022EB440490F2
:10068F00025AF02290025AE0FFC31354017012A3D2
:10069F00E0D3940A748094804007EF440190025A8B
:1006AF00F090025AE054FBF0E4A3F090025AE054A9
:0306BF00FDF02229
:10119500900254E030E01454FEF0E534700D7F0306
:1011A5001213CE7534017F01121390900256E03070
:1011B500E00F54FEF01543AF4312003E7F01120FBE
:1011C50027900258E030E00F54FEF00543AF43127C
:1011D500003EAF4312139090025AE030E00A54FEED
:0911E500F01543AF4312003E2255
:10128900AB07C2D9E4F5EBF5FB90024A1202F9006B
:1012990000000090024E1202F9000000009002388E
:1012A9001202F9000000009002461202F900000043
:1012B90000C209C20AEBFF7E006401700475DB11EC
:0812C90022EF4E7002F5DB225A
:100CFF00AFDBEF6411706375DB2190024EE0FCA354
:100D0F00E0FDA3E0FEA3E0FF90024A1202ED900285
:100D1F0051E5EBF0900250E5FBF090025FE090029E
:100D2F004FF0E490024EF090024AE0F8A3E0F9A3EE
:100D3F00E0FAA3E0FBA3E0FCA3E0FDA3E0FEA3E049
:100D4F00C39BFFEE9AFEED99FDEC98FC90023812D2
:100D5F0002EDE4900238F0D2092275DB11900249BE
:100D6F00E5EBF0900248E5FBF090025FE090024760
:100D7F00F0E4900246F0E0FCA3E0FDA3E0FEA3E068
:100D8F00FF90024EE0F8A3E0F9A3E0FAA3E0FBC363
:100D9F00EF9BFFEE9AFEED99FDEC98FC9002461248
:080DAF0002EDE4900246F0227F
:1006C20020090302081EC209E47F307E75FDFC90FA
:1006D2000238E0F8A3E0F9A3E0FAA3E0FBD31202A8
:1006E200A64003C20B22E47FC87E4BFDFC90023879
:1006F200E0F8A3E0F9A3E0FAA3E0FBC31202A640EC
:1007020021E47FAE7E60FDFC900238E0F8A3A3A353
:10071200E01202A6500302081ED20B90024574207A
:10072200F022200B0302081EE47F707E17FDFC906E
:100732000238E0F8A3E0F9A3E0FAA3E0FBD3120247
:10074200A64003C20B2290023CE0C313F0E47F2ECA
:100752007E0DFDFC900238E0F8A3E0F9A3E0FAA3D5
:10076200E0FBC31202A6400790023CE04480F090F6
:100772000245E014F06003020802C20B90023CE062
:10078200F4FFA3E06F600302081E900253E0FFE44F
:10079200FCFDFE78101202CAC004C005C006C007E4
:1007A200900252E0FFE4FCFDFE78181202CAD00368
:1007B200D002D001D000EF2BFFEE3AFEED39FDEC76
:1007C20038FCA804A905AA06AB0790023DE07F0009
:1007D200FE3395E0FDFCEF2BFBEA3EFAE93DF9E83A
:1007E2003CF890023CE0FFE4FCFDFEEB2FFFEE3A0A
:1007F200FEED39FDEC38FC9002411202EDD20A22E4
:10080200900245E054077014900252E0A3F0900267
:0D0812003DE0900252F090023CE0A3F02285
:1012D100538E7F438E80758CF6758AA053B7FDA21D
:1012E100B9B3E43352B8D2A9D28C75440AD2AF2231
:03000B000212409E
:10124000C0E0C0F0C083C082C0D075D000C000C074
:1012500001C002C003C004C005C006C0071544E5B4
:1012600044700B75440AD21112112F1212F1D007DB
:10127000D006D005D004D003D002D001D000D0D009
:09128000D082D083D0F0D0E0321E
:1013650053A2CF43A210E4F5D875D901F5E9F5F9F3
:011375002255
:10135300EF600CE4F5E9F5F990025FF0D2DE22C20A
:02136300DE2288
:03003B000210C1EF
:1010C100C0E0C0F0C083C082C0D075D00830D9164E
:1010D100C2D930DF0EE5FB54807008C2DF90025F99
:1010E100E004F0120CFF30DA16C2DA30DF0EE5FC54
:1010F10054807008C2DF90025FE004F0120DB73037
:10110100DB16C2DB30DF0EE5FD54807008C2DF90D4
:10111100025FE004F0120E6F30DF08C2DF90025F61
:0E112100E004F0D0D0D082D083D0F0D0E03205
:100F2700AB07C2DAE4F5ECF5FC90021C1202F900FB
:100F37000000009002201202F90000000090020455
:100F47001202F90000000090020C1202F9000000E2
:100F570000C205C203C2DBE4F5EDF5FD90021412F1
:100F670002F9000000009002181202F900000000C8
:100F77009002001202F9000000009002081202F924
:100F870000000000C204C202EB6401701D75DC1191
:100F970075DD11F53B9002281202F9000000009060
:100FA70002241202F90000000022EB7004F5DCF5C0
:020FB700DD2239
:100DB700AFDCEF6411706375DC21900220E0FCA3C7
:100DC700E0FDA3E0FEA3E0FF90021C1202ED9002FB
:100DD70023E5ECF0900222E5FCF090025FE0900240
:100DE70021F0E4900220F090021CE0F8A3E0F9A3C0
:100DF700E0FAA3E0FBA3E0FCA3E0FDA3E0FEA3E091
:100E0700C39BFFEE9AFEED99FDEC98FC900204124D
:100E170002EDE4900204F0D2072275DC1190020F74
:100E2700E5ECF090020EE5FCF090025FE090020D19
:100E3700F0E490020CF0E0FCA3E0FDA3E0FEA3E0E9
:100E4700FF900220E0F8A3E0F9A3E0FAA3E0FBC3D8
:100E5700EF9BFFEE9AFEED99FDEC98FC90020C12C9
:080E670002EDE490020CF02200
:10081F00E420070302092CC2077F64FEFDFC90024F
:10082F000CE0F8A3E0F9A3E0FAA3E0FB1201899032
:10083F000204E0F8A3E0F9A3E0FAA3E0FB1202142C
:10084F00AB07200335EBD3940874809480400302E8
:10085F00092C90020CE0FCA3E0FDA3E0FEA3E0FF57
:10086F00900236EEF0A3EFF0D203753718900230F6
:10087F001202F90000000002092C20030302092CC8
:10088F00EBFFD3942374809480502BC3EF940F7499
:10089F008094804021900230E0FCA3E0FDA3E0FEB5
:1008AF00A3E0FF78011202B79002301202ED153764
:1008BF00E5377069804DEBFFD39455748094805069
:1008CF005AC3EF9441748094804050900230E0FC02
:1008DF00A3E0FDA3E0FEA3E0FF78011202B79002B0
:1008EF00301202ED900230E0FCA3E0FDA3E0FEA386
:1008FF00E0FFED4480FDEC9002301202ED1537E57C
:10090F0037701AC203D205900236E0FEA3E0F4FF5F
:10091F00EEF4900212F0A3EFF08002C20330053F15
:10092F00C205900230E0FCA3E0FDA3E0FEA3E0FFD0
:10093F00900228E0F8A3E0F9A3E0FAA3E0FBC312CA
:10094F0002A67007753B01FF020F27900230E0FCF3
:0F095F00A3E0FDA3E0FEA3E0FF9002281202ED4B
:01096E002266
:100E6F00AFDDEF6411706375DD21900218E0FCA314
:100E7F00E0FDA3E0FEA3E0FF9002141202ED90024A
:100E8F001BE5EDF090021AE5FDF090025FE0900295
:100E9F0019F0E4900218F0900214E0F8A3E0F9A31F
:100EAF00E0FAA3E0FBA3E0FCA3E0FDA3E0FEA3E0D8
:100EBF00C39BFFEE9AFEED99FDEC98FC9002001299
:100ECF0002EDE4900200F0D2062275DD1190020BC4
:100EDF00E5EDF090020AE5FDF090025FE090020967
:100EEF00F0E4900208F0E0FCA3E0FDA3E0FEA3E035
:100EFF00FF900218E0F8A3E0F9A3E0FAA3E0FBC328
:100F0F00EF9BFFEE9AFEED99FDEC98FC9002081214
:080F1F0002EDE4900208F0224B
:10096F00E4200603020A7CC2067F64FEFDFC9002AF
:10097F0008E0F8A3E0F9A3E0FAA3E0FB12018990E5
:10098F000200E0F8A3E0F9A3E0FAA3E0FB120214DF
:10099F00AB07200235EBD394087480948040030298
:1009AF000A7C900208E0FCA3E0FDA3E0FEA3E0FFB9
:1009BF00900234EEF0A3EFF0D20275361890022CAD
:1009CF001202F900000000020A7C200203020A7CD6
:1009DF00EBFFD3942374809480502BC3EF940F7448
:1009EF00809480402190022CE0FCA3E0FDA3E0FE68
:1009FF00A3E0FF78011202B790022C1202ED153618
:100A0F00E5367069804DEBFFD39455748094805018
:100A1F005AC3EF944174809480405090022CE0FCB4
:100A2F00A3E0FDA3E0FEA3E0FF78011202B790025E
:100A3F002C1202ED90022CE0FCA3E0FDA3E0FEA33C
:100A4F00E0FFED4480FDEC90022C1202ED1536E52F
:100A5F0036701AC202D204900234E0FEA3E0F4FF13
:100A6F00EEF4900210F0A3EFF08002C20230043FC8
:100A7F00C20490022CE0FCA3E0FDA3E0FEA3E0FF84
:100A8F00900224E0F8A3E0F9A3E0FAA3E0FBC3127D
:100A9F0002A67007753B02FF020F2790022CE0FCA5
:0F0AAF00A3E0FDA3E0FEA3E0FF9002241202EDFE
:010ABE002215
:0A13B200E4F5B4F5B3D2C3D2C422AF
:0913C500EF6003D20022C20022F5
:10104500538EE3300023900210E0F539A3E0F53A22
:10105500900224E0FCA3E0FDA3E0FEA3E0F53F8EB3
:101065003E8D3D8C3CC2C48021900212E0F539A32F
:10107500E0F53A900228E0FCA3E0FDA3E0FEA3E042
:10108500F53F8E3E8D3D8C3CC2C3E53AF5D7E5393B
:10109500F5D6E4F535F540F538AF3FAE3EAD3DACA0
:1010A5003CA940A8011202B7EF5401FFEF24FF92BB
:0C10B500010540C208438E1043AF042226
:03006300020BE8A5
:100BE800C0E0C0D075D00853EFFE0535E535640484
:100BF8007048C3E540941874809480502CAF3FAE81
:100C08003EAD3DAC3CA940A8091202B7EF5401FF24
:100C1800E4FEFDFCEF24FF9201054075350030002D
:100C280004C2C48015C2C3801120080ED2087535CD
:100C380000300004C2C48002C2C320084930012524
:100C4800C3E535940374809480500D300005C2C408
:100C5800020CFAC2C3020CFA300005D2C4020CFA24
:100C6800D2C3020CFAC3E535940174809480500B0A
:100C7800300004C2C4807BC2C38077300004D2C471
:100C88008070D2C3806CAF357E00C3EF940174804E
:100C98009480500B300004C2C48057C2C3805330C4
:100CA8000004D2C48002D2C3EF64204E70440538D9
:100CB800D3E5389405748094804008538EE353AF8D
:100CC800FB802F753500754000AF3FAE3EAD3DACA3
:100CD8003CA940A8091202B7EF5401FFE4FEFDFC4D
:100CE800EF24FF92010540C208300004C2C480020C
:070CF800C2C3D0D0D0E032EE
:100FC50002032AE493A3F8E493A34003F68001F215
:100FD50008DFF48029E493A3F85407240CC8C3332D
:100FE500C4540F4420C8834004F456800146F6DFFC
:100FF500E4800B010204081020408090139DE47EDC
:10100500019360BCA3FF543F30E509541FFEE493F0
:10101500A360010ECF54C025E060A840B8E493A3B7
:10102500FAE493A3F8E493A3C8C582C8CAC583CAE2
:10103500F0A3C8C582C8CAC583CADFE9DEE780BE9A
:0113A7000045
:10006600E709F608DFFA8046E709F208DFFA803E7C
:1000760088828C83E709F0A3DFFA8032E309F60869
:10008600DFFA8078E309F208DFFA807088828C83D1
:10009600E309F0A3DFFA806489828A83E0A3F60885
:1000A600DFFA805889828A83E0A3F208DFFA804C5F
:1000B60080D280FA80C680D4806980F28033801036
:1000C60080A680EA809A80A880DA80E280CA80339F
:1000D60089828A83ECFAE493A3C8C582C8CCC58317
:1000E600CCF0A3C8C582C8CCC583CCDFE9DEE780E7
:1000F6000D89828A83E493A3F608DFF9ECFAA9F066
:10010600EDFB2289828A83ECFAE0A3C8C582C8CCBB
:10011600C583CCF0A3C8C582C8CCC583CCDFEADED4
:10012600E880DB89828A83E493A3F208DFF980CC36
:1001360088F0EF60010E4E60C388F0ED2402B4042F
:100146000050B9F582EB2402B4040050AF232345D6
:0601560082239000B67345
:10015C00BB010CE58229F582E5833AF583E0225058
:10016C0006E92582F8E622BBFE06E92582F8E222A2
:0D017C00E58229F582E5833AF583E49322BC
:10018900E88FF0A4CC8BF0A42CFCE98EF0A42CFC15
:100199008AF0EDA42CFCEA8EF0A4CDA8F08BF0A493
:1001A9002DCC3825F0FDE98FF0A42CCD35F0FCEBF2
:1001B9008EF0A4FEA9F0EB8FF0A4CFC5F02ECD39B7
:0F01C900FEE43CFCEAA42DCE35F0FDE43CFC2224
:1001D80075F008758200EF2FFFEE33FECD33CDCCDE
:1001E80033CCC58233C5829BED9AEC99E582984061
:1001F8000CF582EE9BFEED9AFDEC99FC0FD5F0D63E
:10020800E4CEFBE4CDFAE4CCF9A88222B800C1B967
:100218000059BA002DEC8BF084CFCECDFCE5F0CBA5
:10022800F97818EF2FFFEE33FEED33FDEC33FCEBDE
:1002380033FB10D703994004EB99FB0FD8E5E4F999
:10024800FA227818EF2FFFEE33FEED33FDEC33FC86
:10025800C933C910D7059BE99A4007EC9BFCE99A7A
:10026800F90FD8E0E4C9FAE4CCFB2275F010EF2FBF
:10027800FFEE33FEED33FDCC33CCC833C810D707BF
:100288009BEC9AE899400AED9BFDEC9AFCE899F8FA
:0E0298000FD5F0DAE4CDFBE4CCFAE4C8F9228D
:1002A600EB9FF5F0EA9E42F0E99D42F0E89C45F0AE
:0102B6002225
:1002B700E8600FECC313FCED13FDEE13FEEF13FF25
:0302C700D8F12249
:1002CA00E8600FEFC333FFEE33FEED33FDEC33FC92
:0302DA00D8F12236
:1002DD00E493FC740193FD740293FE740393FF2267
:0C02ED00ECF0A3EDF0A3EEF0A3EFF02284
:1002F900A8828583F0D083D08212031012031012D2
:100309000310120310E473E493A3C583C5F0C583F6
:10031900C8C582C8F0A3C583C5F0C583C8C582C84E
:0103290022B1
:00000001FF
